{
  "_format": "hh-sol-artifact-1",
  "contractName": "Testament",
  "sourceName": "contracts/testament.sol",
  "abi": [
    {
      "inputs": [],
      "stateMutability": "nonpayable",
      "type": "constructor"
    },
    {
      "anonymous": false,
      "inputs": [
        {
          "indexed": true,
          "internalType": "uint256",
          "name": "testamentId",
          "type": "uint256"
        },
        {
          "indexed": false,
          "internalType": "address",
          "name": "heir",
          "type": "address"
        },
        {
          "indexed": false,
          "internalType": "uint256",
          "name": "amount",
          "type": "uint256"
        }
      ],
      "name": "InheritanceClaimed",
      "type": "event"
    },
    {
      "anonymous": false,
      "inputs": [
        {
          "indexed": true,
          "internalType": "uint256",
          "name": "testamentId",
          "type": "uint256"
        }
      ],
      "name": "TestamentActivated",
      "type": "event"
    },
    {
      "anonymous": false,
      "inputs": [
        {
          "indexed": true,
          "internalType": "uint256",
          "name": "testamentId",
          "type": "uint256"
        },
        {
          "indexed": false,
          "internalType": "address",
          "name": "owner",
          "type": "address"
        },
        {
          "indexed": false,
          "internalType": "address",
          "name": "lawyer",
          "type": "address"
        }
      ],
      "name": "TestamentCreated",
      "type": "event"
    },
    {
      "inputs": [
        {
          "internalType": "uint256",
          "name": "_testamentId",
          "type": "uint256"
        }
      ],
      "name": "activateTestament",
      "outputs": [],
      "stateMutability": "nonpayable",
      "type": "function"
    },
    {
      "inputs": [
        {
          "internalType": "uint256",
          "name": "_testamentId",
          "type": "uint256"
        },
        {
          "internalType": "address",
          "name": "_heir",
          "type": "address"
        },
        {
          "internalType": "uint256",
          "name": "_percentage",
          "type": "uint256"
        },
        {
          "internalType": "string",
          "name": "_documentHash",
          "type": "string"
        }
      ],
      "name": "addHeir",
      "outputs": [],
      "stateMutability": "nonpayable",
      "type": "function"
    },
    {
      "inputs": [
        {
          "internalType": "uint256",
          "name": "_testamentId",
          "type": "uint256"
        }
      ],
      "name": "claimInheritance",
      "outputs": [],
      "stateMutability": "nonpayable",
      "type": "function"
    },
    {
      "inputs": [
        {
          "internalType": "address",
          "name": "_lawyer",
          "type": "address"
        }
      ],
      "name": "createTestament",
      "outputs": [
        {
          "internalType": "uint256",
          "name": "",
          "type": "uint256"
        }
      ],
      "stateMutability": "nonpayable",
      "type": "function"
    },
    {
      "inputs": [
        {
          "internalType": "uint256",
          "name": "_testamentId",
          "type": "uint256"
        }
      ],
      "name": "getHeirs",
      "outputs": [
        {
          "components": [
            {
              "internalType": "address",
              "name": "heirAddress",
              "type": "address"
            },
            {
              "internalType": "uint256",
              "name": "percentage",
              "type": "uint256"
            },
            {
              "internalType": "string",
              "name": "documentHash",
              "type": "string"
            }
          ],
          "internalType": "struct Testament.Heir[]",
          "name": "",
          "type": "tuple[]"
        }
      ],
      "stateMutability": "view",
      "type": "function"
    },
    {
      "inputs": [],
      "name": "testamentCount",
      "outputs": [
        {
          "internalType": "uint256",
          "name": "",
          "type": "uint256"
        }
      ],
      "stateMutability": "view",
      "type": "function"
    },
    {
      "inputs": [
        {
          "internalType": "uint256",
          "name": "",
          "type": "uint256"
        }
      ],
      "name": "testaments",
      "outputs": [
        {
          "internalType": "address",
          "name": "owner",
          "type": "address"
        },
        {
          "internalType": "address",
          "name": "lawyer",
          "type": "address"
        },
        {
          "internalType": "bool",
          "name": "isActive",
          "type": "bool"
        }
      ],
      "stateMutability": "view",
      "type": "function"
    },
    {
      "inputs": [
        {
          "internalType": "uint256",
          "name": "_testamentId",
          "type": "uint256"
        }
      ],
      "name": "viewInheritance",
      "outputs": [
        {
          "internalType": "uint256",
          "name": "",
          "type": "uint256"
        },
        {
          "internalType": "string",
          "name": "",
          "type": "string"
        }
      ],
      "stateMutability": "view",
      "type": "function"
    }
  ],
  "bytecode": "0x6080604052348015600f57600080fd5b506116a78061001f6000396000f3fe608060405234801561001057600080fd5b50600436106100885760003560e01c80639ccef9601161005b5780639ccef96014610125578063acf05ec814610141578063d1d3a04c14610172578063d5df76a31461019057610088565b80638508e1521461008d57806389a37331146100bd57806392ccb8ff146100ed5780639b6fc2e214610109575b600080fd5b6100a760048036038101906100a29190610b96565b6101c2565b6040516100b49190610bdc565b60405180910390f35b6100d760048036038101906100d29190610c23565b6102de565b6040516100e49190610e10565b60405180910390f35b61010760048036038101906101029190610c23565b610444565b005b610123600480360381019061011e9190610c23565b61061e565b005b61013f600480360381019061013a9190610f67565b61071f565b005b61015b60048036038101906101569190610c23565b6108a0565b604051610169929190611034565b60405180910390f35b61017a610aa7565b6040516101879190610bdc565b60405180910390f35b6101aa60048036038101906101a59190610c23565b610aad565b6040516101b99392919061108e565b60405180910390f35b6000600160008154809291906101d7906110f4565b9190505550600080600060015481526020019081526020016000209050338160000160006101000a81548173ffffffffffffffffffffffffffffffffffffffff021916908373ffffffffffffffffffffffffffffffffffffffff160217905550828160010160006101000a81548173ffffffffffffffffffffffffffffffffffffffff021916908373ffffffffffffffffffffffffffffffffffffffff16021790555060008160010160146101000a81548160ff0219169083151502179055506001547f9c6a0135230f01de660fe231c80c4d2e0d8d9ee407b4d0d628823617469b558333856040516102cb92919061113c565b60405180910390a2600154915050919050565b6060600080838152602001908152602001600020600201805480602002602001604051908101604052809291908181526020016000905b8282101561043957838290600052602060002090600302016040518060600160405290816000820160009054906101000a900473ffffffffffffffffffffffffffffffffffffffff1673ffffffffffffffffffffffffffffffffffffffff1673ffffffffffffffffffffffffffffffffffffffff168152602001600182015481526020016002820180546103a890611194565b80601f01602080910402602001604051908101604052809291908181526020018280546103d490611194565b80156104215780601f106103f657610100808354040283529160200191610421565b820191906000526020600020905b81548152906001019060200180831161040457829003601f168201915b50505050508152505081526020019060010190610315565b505050509050919050565b60008082815260200190815260200160002060010160149054906101000a900460ff166104a6576040517f08c379a000000000000000000000000000000000000000000000000000000000815260040161049d90611211565b60405180910390fd5b60005b600080838152602001908152602001600020600201805490508110156105df573373ffffffffffffffffffffffffffffffffffffffff16600080848152602001908152602001600020600201828154811061050757610506611231565b5b906000526020600020906003020160000160009054906101000a900473ffffffffffffffffffffffffffffffffffffffff1673ffffffffffffffffffffffffffffffffffffffff16036105d2576000806000848152602001908152602001600020600201828154811061057d5761057c611231565b5b9060005260206000209060030201600101549050827f1c2ddc0e217d2cae3c15684e7941984d5c180026e4c166e66361f5abce463ffd33836040516105c3929190611260565b60405180910390a2505061061b565b80806001019150506104a9565b506040517f08c379a0000000000000000000000000000000000000000000000000000000008152600401610612906112d5565b60405180910390fd5b50565b60008082815260200190815260200160002060010160009054906101000a900473ffffffffffffffffffffffffffffffffffffffff1673ffffffffffffffffffffffffffffffffffffffff163373ffffffffffffffffffffffffffffffffffffffff16146106c1576040517f08c379a00000000000000000000000000000000000000000000000000000000081526004016106b890611367565b60405180910390fd5b600160008083815260200190815260200160002060010160146101000a81548160ff021916908315150217905550807f738789d97160bfe471f3c5d5da0280bb24b2ee025a7b5d68d05831f758c4602060405160405180910390a250565b60008085815260200190815260200160002060000160009054906101000a900473ffffffffffffffffffffffffffffffffffffffff1673ffffffffffffffffffffffffffffffffffffffff163373ffffffffffffffffffffffffffffffffffffffff16146107c2576040517f08c379a00000000000000000000000000000000000000000000000000000000081526004016107b9906113d3565b60405180910390fd5b60008085815260200190815260200160002060020160405180606001604052808573ffffffffffffffffffffffffffffffffffffffff16815260200184815260200183815250908060018154018082558091505060019003906000526020600020906003020160009091909190915060008201518160000160006101000a81548173ffffffffffffffffffffffffffffffffffffffff021916908373ffffffffffffffffffffffffffffffffffffffff160217905550602082015181600101556040820151816002019081610897919061159f565b50505050505050565b6000606060005b60008085815260200190815260200160002060020180549050811015610a66573373ffffffffffffffffffffffffffffffffffffffff16600080868152602001908152602001600020600201828154811061090557610904611231565b5b906000526020600020906003020160000160009054906101000a900473ffffffffffffffffffffffffffffffffffffffff1673ffffffffffffffffffffffffffffffffffffffff1603610a5957600080858152602001908152602001600020600201818154811061097957610978611231565b5b90600052602060002090600302016001015460008086815260200190815260200160002060020182815481106109b2576109b1611231565b5b90600052602060002090600302016002018080546109cf90611194565b80601f01602080910402602001604051908101604052809291908181526020018280546109fb90611194565b8015610a485780601f10610a1d57610100808354040283529160200191610a48565b820191906000526020600020905b815481529060010190602001808311610a2b57829003601f168201915b505050505090509250925050610aa2565b80806001019150506108a7565b506040517f08c379a0000000000000000000000000000000000000000000000000000000008152600401610a99906112d5565b60405180910390fd5b915091565b60015481565b60006020528060005260406000206000915090508060000160009054906101000a900473ffffffffffffffffffffffffffffffffffffffff16908060010160009054906101000a900473ffffffffffffffffffffffffffffffffffffffff16908060010160149054906101000a900460ff16905083565b6000604051905090565b600080fd5b600080fd5b600073ffffffffffffffffffffffffffffffffffffffff82169050919050565b6000610b6382610b38565b9050919050565b610b7381610b58565b8114610b7e57600080fd5b50565b600081359050610b9081610b6a565b92915050565b600060208284031215610bac57610bab610b2e565b5b6000610bba84828501610b81565b91505092915050565b6000819050919050565b610bd681610bc3565b82525050565b6000602082019050610bf16000830184610bcd565b92915050565b610c0081610bc3565b8114610c0b57600080fd5b50565b600081359050610c1d81610bf7565b92915050565b600060208284031215610c3957610c38610b2e565b5b6000610c4784828501610c0e565b91505092915050565b600081519050919050565b600082825260208201905092915050565b6000819050602082019050919050565b610c8581610b58565b82525050565b610c9481610bc3565b82525050565b600081519050919050565b600082825260208201905092915050565b60005b83811015610cd4578082015181840152602081019050610cb9565b60008484015250505050565b6000601f19601f8301169050919050565b6000610cfc82610c9a565b610d068185610ca5565b9350610d16818560208601610cb6565b610d1f81610ce0565b840191505092915050565b6000606083016000830151610d426000860182610c7c565b506020830151610d556020860182610c8b565b5060408301518482036040860152610d6d8282610cf1565b9150508091505092915050565b6000610d868383610d2a565b905092915050565b6000602082019050919050565b6000610da682610c50565b610db08185610c5b565b935083602082028501610dc285610c6c565b8060005b85811015610dfe5784840389528151610ddf8582610d7a565b9450610dea83610d8e565b925060208a01995050600181019050610dc6565b50829750879550505050505092915050565b60006020820190508181036000830152610e2a8184610d9b565b905092915050565b600080fd5b600080fd5b7f4e487b7100000000000000000000000000000000000000000000000000000000600052604160045260246000fd5b610e7482610ce0565b810181811067ffffffffffffffff82111715610e9357610e92610e3c565b5b80604052505050565b6000610ea6610b24565b9050610eb28282610e6b565b919050565b600067ffffffffffffffff821115610ed257610ed1610e3c565b5b610edb82610ce0565b9050602081019050919050565b82818337600083830152505050565b6000610f0a610f0584610eb7565b610e9c565b905082815260208101848484011115610f2657610f25610e37565b5b610f31848285610ee8565b509392505050565b600082601f830112610f4e57610f4d610e32565b5b8135610f5e848260208601610ef7565b91505092915050565b60008060008060808587031215610f8157610f80610b2e565b5b6000610f8f87828801610c0e565b9450506020610fa087828801610b81565b9350506040610fb187828801610c0e565b925050606085013567ffffffffffffffff811115610fd257610fd1610b33565b5b610fde87828801610f39565b91505092959194509250565b600082825260208201905092915050565b600061100682610c9a565b6110108185610fea565b9350611020818560208601610cb6565b61102981610ce0565b840191505092915050565b60006040820190506110496000830185610bcd565b818103602083015261105b8184610ffb565b90509392505050565b61106d81610b58565b82525050565b60008115159050919050565b61108881611073565b82525050565b60006060820190506110a36000830186611064565b6110b06020830185611064565b6110bd604083018461107f565b949350505050565b7f4e487b7100000000000000000000000000000000000000000000000000000000600052601160045260246000fd5b60006110ff82610bc3565b91507fffffffffffffffffffffffffffffffffffffffffffffffffffffffffffffffff8203611131576111306110c5565b5b600182019050919050565b60006040820190506111516000830185611064565b61115e6020830184611064565b9392505050565b7f4e487b7100000000000000000000000000000000000000000000000000000000600052602260045260246000fd5b600060028204905060018216806111ac57607f821691505b6020821081036111bf576111be611165565b5b50919050565b7f54657374616d656e74206973206e6f7420616374697665000000000000000000600082015250565b60006111fb601783610fea565b9150611206826111c5565b602082019050919050565b6000602082019050818103600083015261122a816111ee565b9050919050565b7f4e487b7100000000000000000000000000000000000000000000000000000000600052603260045260246000fd5b60006040820190506112756000830185611064565b6112826020830184610bcd565b9392505050565b7f596f7520617265206e6f74206c697374656420617320616e2068656972000000600082015250565b60006112bf601d83610fea565b91506112ca82611289565b602082019050919050565b600060208201905081810360008301526112ee816112b2565b9050919050565b7f4f6e6c792061737369676e6564206c61777965722063616e206163746976617460008201527f65207468652074657374616d656e740000000000000000000000000000000000602082015250565b6000611351602f83610fea565b915061135c826112f5565b604082019050919050565b6000602082019050818103600083015261138081611344565b9050919050565b7f4f6e6c79206f776e65722063616e206164642068656972730000000000000000600082015250565b60006113bd601883610fea565b91506113c882611387565b602082019050919050565b600060208201905081810360008301526113ec816113b0565b9050919050565b60008190508160005260206000209050919050565b60006020601f8301049050919050565b600082821b905092915050565b6000600883026114557fffffffffffffffffffffffffffffffffffffffffffffffffffffffffffffffff82611418565b61145f8683611418565b95508019841693508086168417925050509392505050565b6000819050919050565b600061149c61149761149284610bc3565b611477565b610bc3565b9050919050565b6000819050919050565b6114b683611481565b6114ca6114c2826114a3565b848454611425565b825550505050565b600090565b6114df6114d2565b6114ea8184846114ad565b505050565b5b8181101561150e576115036000826114d7565b6001810190506114f0565b5050565b601f82111561155357611524816113f3565b61152d84611408565b8101602085101561153c578190505b61155061154885611408565b8301826114ef565b50505b505050565b600082821c905092915050565b600061157660001984600802611558565b1980831691505092915050565b600061158f8383611565565b9150826002028217905092915050565b6115a882610c9a565b67ffffffffffffffff8111156115c1576115c0610e3c565b5b6115cb8254611194565b6115d6828285611512565b600060209050601f83116001811461160957600084156115f7578287015190505b6116018582611583565b865550611669565b601f198416611617866113f3565b60005b8281101561163f5784890151825560018201915060208501945060208101905061161a565b8683101561165c5784890151611658601f891682611565565b8355505b6001600288020188555050505b50505050505056fea26469706673582212205a637a57988f7130ad23f2c7ae30008d881ea8a8b5311e172d71be9efed39c4564736f6c634300081c0033",
  "linkReferences": {},
  "deployedLinkReferences": {}
}